{
  "contractName": "Agent",
  "abi": [
    {
      "inputs": [
        {
          "internalType": "uint256",
          "name": "",
          "type": "uint256"
        }
      ],
      "name": "doctorList",
      "outputs": [
        {
          "internalType": "address",
          "name": "",
          "type": "address"
        }
      ],
      "stateMutability": "view",
      "type": "function",
      "constant": true
    },
    {
      "inputs": [
        {
          "internalType": "uint256",
          "name": "",
          "type": "uint256"
        }
      ],
      "name": "patientList",
      "outputs": [
        {
          "internalType": "address",
          "name": "",
          "type": "address"
        }
      ],
      "stateMutability": "view",
      "type": "function",
      "constant": true
    },
    {
      "inputs": [
        {
          "internalType": "string",
          "name": "_name",
          "type": "string"
        },
        {
          "internalType": "uint256",
          "name": "_age",
          "type": "uint256"
        },
        {
          "internalType": "uint256",
          "name": "_designation",
          "type": "uint256"
        },
        {
          "internalType": "string",
          "name": "_hash",
          "type": "string"
        }
      ],
      "name": "addAgent",
      "outputs": [],
      "stateMutability": "nonpayable",
      "type": "function"
    },
    {
      "inputs": [
        {
          "internalType": "address",
          "name": "addr",
          "type": "address"
        }
      ],
      "name": "getPatient",
      "outputs": [
        {
          "internalType": "string",
          "name": "",
          "type": "string"
        },
        {
          "internalType": "uint256",
          "name": "",
          "type": "uint256"
        },
        {
          "internalType": "uint256[]",
          "name": "",
          "type": "uint256[]"
        },
        {
          "internalType": "address",
          "name": "",
          "type": "address"
        },
        {
          "internalType": "string",
          "name": "",
          "type": "string"
        }
      ],
      "stateMutability": "view",
      "type": "function",
      "constant": true
    },
    {
      "inputs": [
        {
          "internalType": "address",
          "name": "addr",
          "type": "address"
        }
      ],
      "name": "getDoctor",
      "outputs": [
        {
          "internalType": "string",
          "name": "",
          "type": "string"
        },
        {
          "internalType": "uint256",
          "name": "",
          "type": "uint256"
        }
      ],
      "stateMutability": "view",
      "type": "function",
      "constant": true
    },
    {
      "inputs": [
        {
          "internalType": "address",
          "name": "paddr",
          "type": "address"
        },
        {
          "internalType": "address",
          "name": "daddr",
          "type": "address"
        }
      ],
      "name": "getPatientDoctorName",
      "outputs": [
        {
          "internalType": "string",
          "name": "",
          "type": "string"
        },
        {
          "internalType": "string",
          "name": "",
          "type": "string"
        }
      ],
      "stateMutability": "view",
      "type": "function",
      "constant": true
    },
    {
      "inputs": [
        {
          "internalType": "address payable",
          "name": "addr",
          "type": "address"
        }
      ],
      "name": "permitAccess",
      "outputs": [
        {
          "internalType": "address[]",
          "name": "",
          "type": "address[]"
        },
        {
          "internalType": "address[]",
          "name": "",
          "type": "address[]"
        }
      ],
      "stateMutability": "payable",
      "type": "function",
      "payable": true
    },
    {
      "inputs": [
        {
          "internalType": "address payable",
          "name": "daddr",
          "type": "address"
        }
      ],
      "name": "revokeAccess",
      "outputs": [],
      "stateMutability": "payable",
      "type": "function",
      "payable": true
    },
    {
      "inputs": [
        {
          "internalType": "address payable",
          "name": "_paddr",
          "type": "address"
        },
        {
          "internalType": "uint256",
          "name": "_diagnosis",
          "type": "uint256"
        },
        {
          "internalType": "string",
          "name": "_hash",
          "type": "string"
        }
      ],
      "name": "insuranceClaim",
      "outputs": [],
      "stateMutability": "payable",
      "type": "function",
      "payable": true
    },
    {
      "inputs": [
        {
          "internalType": "address",
          "name": "_addr",
          "type": "address"
        }
      ],
      "name": "getAccessedDoctorListForPatient",
      "outputs": [
        {
          "internalType": "address[]",
          "name": "",
          "type": "address[]"
        }
      ],
      "stateMutability": "view",
      "type": "function",
      "constant": true
    },
    {
      "inputs": [
        {
          "internalType": "address",
          "name": "_addr",
          "type": "address"
        }
      ],
      "name": "getAccessedPatientListForDoctor",
      "outputs": [
        {
          "internalType": "address[]",
          "name": "",
          "type": "address[]"
        }
      ],
      "stateMutability": "view",
      "type": "function",
      "constant": true
    },
    {
      "inputs": [],
      "name": "getPatientList",
      "outputs": [
        {
          "internalType": "address[]",
          "name": "",
          "type": "address[]"
        }
      ],
      "stateMutability": "view",
      "type": "function",
      "constant": true
    },
    {
      "inputs": [],
      "name": "getDoctorList",
      "outputs": [
        {
          "internalType": "address[]",
          "name": "",
          "type": "address[]"
        }
      ],
      "stateMutability": "view",
      "type": "function",
      "constant": true
    },
    {
      "inputs": [
        {
          "internalType": "address",
          "name": "_paddr",
          "type": "address"
        }
      ],
      "name": "getHash",
      "outputs": [
        {
          "internalType": "string",
          "name": "",
          "type": "string"
        }
      ],
      "stateMutability": "view",
      "type": "function",
      "constant": true
    },
    {
      "inputs": [
        {
          "internalType": "address",
          "name": "_paddr",
          "type": "address"
        },
        {
          "internalType": "address",
          "name": "_daddr",
          "type": "address"
        }
      ],
      "name": "removePatient",
      "outputs": [],
      "stateMutability": "nonpayable",
      "type": "function"
    }
  ],
  "bytecode": "0x608060405234801561001057600080fd5b506124d4806100206000396000f3fe6080604052600436106100e85760003560e01c80638bfd135f1161008a578063b5368e2011610059578063b5368e2014610314578063babb1d4114610355578063dd6d516414610392578063eea04fe3146103bb576100e8565b80638bfd135f146102455780639c3fd2421461026e578063a71aefc9146102ac578063ac816978146102d7576100e8565b80632f04e064116100c65780632f04e06414610183578063503b1354146101c157806375dfab52146101ec57806385e6853114610229576100e8565b8063127ca4b4146100ed57806313766eef1461012a5780631da0b8fc14610146575b600080fd5b3480156100f957600080fd5b50610114600480360381019061010f9190611b9f565b6103ec565b6040516101219190611c0d565b60405180910390f35b610144600480360381019061013f9190611dac565b61042b565b005b34801561015257600080fd5b5061016d60048036038101906101689190611e47565b6106a1565b60405161017a9190611efc565b60405180910390f35b34801561018f57600080fd5b506101aa60048036038101906101a59190611e47565b610775565b6040516101b8929190611f2d565b60405180910390f35b3480156101cd57600080fd5b506101d6610893565b6040516101e3919061201b565b60405180910390f35b3480156101f857600080fd5b50610213600480360381019061020e9190611e47565b610921565b604051610220919061201b565b60405180910390f35b610243600480360381019061023e919061203d565b6109f1565b005b34801561025157600080fd5b5061026c6004803603810190610267919061206a565b610a7a565b005b34801561027a57600080fd5b506102956004803603810190610290919061206a565b610b14565b6040516102a39291906120aa565b60405180910390f35b3480156102b857600080fd5b506102c1610cbe565b6040516102ce919061201b565b60405180910390f35b3480156102e357600080fd5b506102fe60048036038101906102f99190611e47565b610d4c565b60405161030b919061201b565b60405180910390f35b34801561032057600080fd5b5061033b60048036038101906103369190611e47565b610e22565b60405161034c95949392919061219f565b60405180910390f35b34801561036157600080fd5b5061037c60048036038101906103779190611b9f565b611112565b6040516103899190611c0d565b60405180910390f35b34801561039e57600080fd5b506103b960048036038101906103b49190612207565b611151565b005b6103d560048036038101906103d0919061203d565b6113eb565b6040516103e39291906122a6565b60405180910390f35b600281815481106103fc57600080fd5b906000526020600020016000915054906101000a900473ffffffffffffffffffffffffffffffffffffffff1681565b6000805b600460003373ffffffffffffffffffffffffffffffffffffffff1673ffffffffffffffffffffffffffffffffffffffff168152602001908152602001600020600201805490508110156105ae578473ffffffffffffffffffffffffffffffffffffffff16600460003373ffffffffffffffffffffffffffffffffffffffff1673ffffffffffffffffffffffffffffffffffffffff16815260200190815260200160002060020182815481106104e7576104e66122dd565b5b9060005260206000200160009054906101000a900473ffffffffffffffffffffffffffffffffffffffff1673ffffffffffffffffffffffffffffffffffffffff16141561059b573373ffffffffffffffffffffffffffffffffffffffff166108fc670de0b6b3a76400009081150290604051600060405180830381858888f1935050505015801561057c573d6000803e3d6000fd5b50600160008082825461058f919061233b565b92505081905550600191505b80806105a69061236f565b91505061042f565b50801561069b576105bf84836116fe565b6105c98433610a7a565b6000805b600360008773ffffffffffffffffffffffffffffffffffffffff1673ffffffffffffffffffffffffffffffffffffffff168152602001908152602001600020600301805490508110156106985784600360008873ffffffffffffffffffffffffffffffffffffffff1673ffffffffffffffffffffffffffffffffffffffff168152602001908152602001600020600301828154811061066f5761066e6122dd565b5b9060005260206000200154141561068557600191505b80806106909061236f565b9150506105cd565b50505b50505050565b6060600360008373ffffffffffffffffffffffffffffffffffffffff1673ffffffffffffffffffffffffffffffffffffffff16815260200190815260200160002060040180546106f0906123e7565b80601f016020809104026020016040519081016040528092919081815260200182805461071c906123e7565b80156107695780601f1061073e57610100808354040283529160200191610769565b820191906000526020600020905b81548152906001019060200180831161074c57829003601f168201915b50505050509050919050565b60606000600460008473ffffffffffffffffffffffffffffffffffffffff1673ffffffffffffffffffffffffffffffffffffffff168152602001908152602001600020600001600460008573ffffffffffffffffffffffffffffffffffffffff1673ffffffffffffffffffffffffffffffffffffffff1681526020019081526020016000206001015481805461080a906123e7565b80601f0160208091040260200160405190810160405280929190818152602001828054610836906123e7565b80156108835780601f1061085857610100808354040283529160200191610883565b820191906000526020600020905b81548152906001019060200180831161086657829003601f168201915b5050505050915091509150915091565b6060600180548060200260200160405190810160405280929190818152602001828054801561091757602002820191906000526020600020905b8160009054906101000a900473ffffffffffffffffffffffffffffffffffffffff1673ffffffffffffffffffffffffffffffffffffffff16815260200190600101908083116108cd575b5050505050905090565b6060600460008373ffffffffffffffffffffffffffffffffffffffff1673ffffffffffffffffffffffffffffffffffffffff1681526020019081526020016000206002018054806020026020016040519081016040528092919081815260200182805480156109e557602002820191906000526020600020905b8160009054906101000a900473ffffffffffffffffffffffffffffffffffffffff1673ffffffffffffffffffffffffffffffffffffffff168152602001906001019080831161099b575b50505050509050919050565b670de0b6b3a76400003414610a0557600080fd5b610a0f3382610a7a565b3373ffffffffffffffffffffffffffffffffffffffff166108fc670de0b6b3a76400009081150290604051600060405180830381858888f19350505050158015610a5d573d6000803e3d6000fd5b506001600080828254610a70919061233b565b9250508190555050565b610ac5600460008373ffffffffffffffffffffffffffffffffffffffff1673ffffffffffffffffffffffffffffffffffffffff16815260200190815260200160002060020183611759565b610b10600360008473ffffffffffffffffffffffffffffffffffffffff1673ffffffffffffffffffffffffffffffffffffffff16815260200190815260200160002060020182611759565b5050565b606080600360008573ffffffffffffffffffffffffffffffffffffffff1673ffffffffffffffffffffffffffffffffffffffff168152602001908152602001600020600001600460008573ffffffffffffffffffffffffffffffffffffffff1673ffffffffffffffffffffffffffffffffffffffff168152602001908152602001600020600001818054610ba7906123e7565b80601f0160208091040260200160405190810160405280929190818152602001828054610bd3906123e7565b8015610c205780601f10610bf557610100808354040283529160200191610c20565b820191906000526020600020905b815481529060010190602001808311610c0357829003601f168201915b50505050509150808054610c33906123e7565b80601f0160208091040260200160405190810160405280929190818152602001828054610c5f906123e7565b8015610cac5780601f10610c8157610100808354040283529160200191610cac565b820191906000526020600020905b815481529060010190602001808311610c8f57829003601f168201915b50505050509050915091509250929050565b60606002805480602002602001604051908101604052809291908181526020018280548015610d4257602002820191906000526020600020905b8160009054906101000a900473ffffffffffffffffffffffffffffffffffffffff1673ffffffffffffffffffffffffffffffffffffffff1681526020019060010190808311610cf8575b5050505050905090565b60606000600360008473ffffffffffffffffffffffffffffffffffffffff1673ffffffffffffffffffffffffffffffffffffffff168152602001908152602001600020600201905080805480602002602001604051908101604052809291908181526020018280548015610e1557602002820191906000526020600020905b8160009054906101000a900473ffffffffffffffffffffffffffffffffffffffff1673ffffffffffffffffffffffffffffffffffffffff1681526020019060010190808311610dcb575b5050505050915050919050565b60606000606060006060600360008773ffffffffffffffffffffffffffffffffffffffff1673ffffffffffffffffffffffffffffffffffffffff168152602001908152602001600020600001600360008873ffffffffffffffffffffffffffffffffffffffff1673ffffffffffffffffffffffffffffffffffffffff16815260200190815260200160002060010154600360008973ffffffffffffffffffffffffffffffffffffffff1673ffffffffffffffffffffffffffffffffffffffff168152602001908152602001600020600301600560008a73ffffffffffffffffffffffffffffffffffffffff1673ffffffffffffffffffffffffffffffffffffffff16815260200190815260200160002060009054906101000a900473ffffffffffffffffffffffffffffffffffffffff16600360008b73ffffffffffffffffffffffffffffffffffffffff1673ffffffffffffffffffffffffffffffffffffffff168152602001908152602001600020600401848054610fa1906123e7565b80601f0160208091040260200160405190810160405280929190818152602001828054610fcd906123e7565b801561101a5780601f10610fef5761010080835404028352916020019161101a565b820191906000526020600020905b815481529060010190602001808311610ffd57829003601f168201915b505050505094508280548060200260200160405190810160405280929190818152602001828054801561106c57602002820191906000526020600020905b815481526020019060010190808311611058575b5050505050925080805461107f906123e7565b80601f01602080910402602001604051908101604052809291908181526020018280546110ab906123e7565b80156110f85780601f106110cd576101008083540402835291602001916110f8565b820191906000526020600020905b8154815290600101906020018083116110db57829003601f168201915b505050505090509450945094509450945091939590929450565b6001818154811061112257600080fd5b906000526020600020016000915054906101000a900473ffffffffffffffffffffffffffffffffffffffff1681565b600033905060008314156112ad57611167611984565b8581600001819052508481602001818152505082816080018190525080600360003373ffffffffffffffffffffffffffffffffffffffff1673ffffffffffffffffffffffffffffffffffffffff16815260200190815260200160002060008201518160000190805190602001906111df9291906119b3565b50602082015181600101556040820151816002019080519060200190611206929190611a39565b506060820151816003019080519060200190611223929190611ac3565b5060808201518160040190805190602001906112409291906119b3565b509050506001829080600181540180825580915050600190039060005260206000200160009091909190916101000a81548173ffffffffffffffffffffffffffffffffffffffff021916908373ffffffffffffffffffffffffffffffffffffffff160217905550506113e4565b60018314156113e3576112be611b10565b8581600001819052508481602001818152505082816060018190525080600460003373ffffffffffffffffffffffffffffffffffffffff1673ffffffffffffffffffffffffffffffffffffffff16815260200190815260200160002060008201518160000190805190602001906113369291906119b3565b5060208201518160010155604082015181600201908051906020019061135d929190611a39565b50606082015181600301908051906020019061137a9291906119b3565b509050506002829080600181540180825580915050600190039060005260206000200160009091909190916101000a81548173ffffffffffffffffffffffffffffffffffffffff021916908373ffffffffffffffffffffffffffffffffffffffff160217905550505b5b5050505050565b606080670de0b6b3a7640000341461140257600080fd5b60016000808282546114149190612419565b92505081905550600460008473ffffffffffffffffffffffffffffffffffffffff1673ffffffffffffffffffffffffffffffffffffffff168152602001908152602001600020600201339080600181540180825580915050600190039060005260206000200160009091909190916101000a81548173ffffffffffffffffffffffffffffffffffffffff021916908373ffffffffffffffffffffffffffffffffffffffff160217905550600360003373ffffffffffffffffffffffffffffffffffffffff1673ffffffffffffffffffffffffffffffffffffffff168152602001908152602001600020600201839080600181540180825580915050600190039060005260206000200160009091909190916101000a81548173ffffffffffffffffffffffffffffffffffffffff021916908373ffffffffffffffffffffffffffffffffffffffff160217905550600360003373ffffffffffffffffffffffffffffffffffffffff1673ffffffffffffffffffffffffffffffffffffffff168152602001908152602001600020600201600460008573ffffffffffffffffffffffffffffffffffffffff1673ffffffffffffffffffffffffffffffffffffffff1681526020019081526020016000206002018180548060200260200160405190810160405280929190818152602001828054801561166657602002820191906000526020600020905b8160009054906101000a900473ffffffffffffffffffffffffffffffffffffffff1673ffffffffffffffffffffffffffffffffffffffff168152602001906001019080831161161c575b50505050509150808054806020026020016040519081016040528092919081815260200182805480156116ee57602002820191906000526020600020905b8160009054906101000a900473ffffffffffffffffffffffffffffffffffffffff1673ffffffffffffffffffffffffffffffffffffffff16815260200190600101908083116116a4575b5050505050905091509150915091565b80600360008473ffffffffffffffffffffffffffffffffffffffff1673ffffffffffffffffffffffffffffffffffffffff16815260200190815260200160002060040190805190602001906117549291906119b3565b505050565b60006001838054905061176c9190612419565b905060005b8380549050811015611849578273ffffffffffffffffffffffffffffffffffffffff168482815481106117a7576117a66122dd565b5b9060005260206000200160009054906101000a900473ffffffffffffffffffffffffffffffffffffffff1673ffffffffffffffffffffffffffffffffffffffff16141561183657809150838281548110611804576118036122dd565b5b9060005260206000200160006101000a81549073ffffffffffffffffffffffffffffffffffffffff0219169055611849565b80806118419061236f565b915050611771565b506001838054905061185b9190612419565b81146119395760008190505b60018480549050611878919061233b565b811015611937578360018261188d9190612419565b8154811061189e5761189d6122dd565b5b9060005260206000200160009054906101000a900473ffffffffffffffffffffffffffffffffffffffff168482815481106118dc576118db6122dd565b5b9060005260206000200160006101000a81548173ffffffffffffffffffffffffffffffffffffffff021916908373ffffffffffffffffffffffffffffffffffffffff160217905550808061192f9061236f565b915050611867565b505b8280548061194a5761194961246f565b5b6001900381819060005260206000200160006101000a81549073ffffffffffffffffffffffffffffffffffffffff02191690559055505050565b6040518060a0016040528060608152602001600081526020016060815260200160608152602001606081525090565b8280546119bf906123e7565b90600052602060002090601f0160209004810192826119e15760008555611a28565b82601f106119fa57805160ff1916838001178555611a28565b82800160010185558215611a28579182015b82811115611a27578251825591602001919060010190611a0c565b5b509050611a359190611b38565b5090565b828054828255906000526020600020908101928215611ab2579160200282015b82811115611ab15782518260006101000a81548173ffffffffffffffffffffffffffffffffffffffff021916908373ffffffffffffffffffffffffffffffffffffffff16021790555091602001919060010190611a59565b5b509050611abf9190611b38565b5090565b828054828255906000526020600020908101928215611aff579160200282015b82811115611afe578251825591602001919060010190611ae3565b5b509050611b0c9190611b38565b5090565b6040518060800160405280606081526020016000815260200160608152602001606081525090565b5b80821115611b51576000816000905550600101611b39565b5090565b6000604051905090565b600080fd5b600080fd5b6000819050919050565b611b7c81611b69565b8114611b8757600080fd5b50565b600081359050611b9981611b73565b92915050565b600060208284031215611bb557611bb4611b5f565b5b6000611bc384828501611b8a565b91505092915050565b600073ffffffffffffffffffffffffffffffffffffffff82169050919050565b6000611bf782611bcc565b9050919050565b611c0781611bec565b82525050565b6000602082019050611c226000830184611bfe565b92915050565b6000611c3382611bcc565b9050919050565b611c4381611c28565b8114611c4e57600080fd5b50565b600081359050611c6081611c3a565b92915050565b600080fd5b600080fd5b6000601f19601f8301169050919050565b7f4e487b7100000000000000000000000000000000000000000000000000000000600052604160045260246000fd5b611cb982611c70565b810181811067ffffffffffffffff82111715611cd857611cd7611c81565b5b80604052505050565b6000611ceb611b55565b9050611cf78282611cb0565b919050565b600067ffffffffffffffff821115611d1757611d16611c81565b5b611d2082611c70565b9050602081019050919050565b82818337600083830152505050565b6000611d4f611d4a84611cfc565b611ce1565b905082815260208101848484011115611d6b57611d6a611c6b565b5b611d76848285611d2d565b509392505050565b600082601f830112611d9357611d92611c66565b5b8135611da3848260208601611d3c565b91505092915050565b600080600060608486031215611dc557611dc4611b5f565b5b6000611dd386828701611c51565b9350506020611de486828701611b8a565b925050604084013567ffffffffffffffff811115611e0557611e04611b64565b5b611e1186828701611d7e565b9150509250925092565b611e2481611bec565b8114611e2f57600080fd5b50565b600081359050611e4181611e1b565b92915050565b600060208284031215611e5d57611e5c611b5f565b5b6000611e6b84828501611e32565b91505092915050565b600081519050919050565b600082825260208201905092915050565b60005b83811015611eae578082015181840152602081019050611e93565b83811115611ebd576000848401525b50505050565b6000611ece82611e74565b611ed88185611e7f565b9350611ee8818560208601611e90565b611ef181611c70565b840191505092915050565b60006020820190508181036000830152611f168184611ec3565b905092915050565b611f2781611b69565b82525050565b60006040820190508181036000830152611f478185611ec3565b9050611f566020830184611f1e565b9392505050565b600081519050919050565b600082825260208201905092915050565b6000819050602082019050919050565b611f9281611bec565b82525050565b6000611fa48383611f89565b60208301905092915050565b6000602082019050919050565b6000611fc882611f5d565b611fd28185611f68565b9350611fdd83611f79565b8060005b8381101561200e578151611ff58882611f98565b975061200083611fb0565b925050600181019050611fe1565b5085935050505092915050565b600060208201905081810360008301526120358184611fbd565b905092915050565b60006020828403121561205357612052611b5f565b5b600061206184828501611c51565b91505092915050565b6000806040838503121561208157612080611b5f565b5b600061208f85828601611e32565b92505060206120a085828601611e32565b9150509250929050565b600060408201905081810360008301526120c48185611ec3565b905081810360208301526120d88184611ec3565b90509392505050565b600081519050919050565b600082825260208201905092915050565b6000819050602082019050919050565b61211681611b69565b82525050565b6000612128838361210d565b60208301905092915050565b6000602082019050919050565b600061214c826120e1565b61215681856120ec565b9350612161836120fd565b8060005b83811015612192578151612179888261211c565b975061218483612134565b925050600181019050612165565b5085935050505092915050565b600060a08201905081810360008301526121b98188611ec3565b90506121c86020830187611f1e565b81810360408301526121da8186612141565b90506121e96060830185611bfe565b81810360808301526121fb8184611ec3565b90509695505050505050565b6000806000806080858703121561222157612220611b5f565b5b600085013567ffffffffffffffff81111561223f5761223e611b64565b5b61224b87828801611d7e565b945050602061225c87828801611b8a565b935050604061226d87828801611b8a565b925050606085013567ffffffffffffffff81111561228e5761228d611b64565b5b61229a87828801611d7e565b91505092959194509250565b600060408201905081810360008301526122c08185611fbd565b905081810360208301526122d48184611fbd565b90509392505050565b7f4e487b7100000000000000000000000000000000000000000000000000000000600052603260045260246000fd5b7f4e487b7100000000000000000000000000000000000000000000000000000000600052601160045260246000fd5b600061234682611b69565b915061235183611b69565b9250828210156123645761236361230c565b5b828203905092915050565b600061237a82611b69565b91507fffffffffffffffffffffffffffffffffffffffffffffffffffffffffffffffff8214156123ad576123ac61230c565b5b600182019050919050565b7f4e487b7100000000000000000000000000000000000000000000000000000000600052602260045260246000fd5b600060028204905060018216806123ff57607f821691505b60208210811415612413576124126123b8565b5b50919050565b600061242482611b69565b915061242f83611b69565b9250827fffffffffffffffffffffffffffffffffffffffffffffffffffffffffffffffff038211156124645761246361230c565b5b828201905092915050565b7f4e487b7100000000000000000000000000000000000000000000000000000000600052603160045260246000fdfea2646970667358221220ae3da6e03000ce154575e5519ee12c6105c6c24d8a08163b8816c617cef2e50c64736f6c634300080b0033",
  "immutableReferences": {},
  "source": "// SPDX-License-Identifier: UNLICENSED\r\npragma solidity >=0.4.22 <0.9.0;\r\n\r\ncontract Agent {\r\n    struct patient {\r\n        string name;\r\n        uint256 age;\r\n        address[] doctorAccessList;\r\n        uint256[] diagnosis;\r\n        string record;\r\n    }\r\n\r\n    struct doctor {\r\n        string name;\r\n        uint256 age;\r\n        address[] patientAccessList;\r\n        string record;\r\n    }\r\n\r\n    uint256 creditPool;\r\n\r\n    address[] public patientList;\r\n    address[] public doctorList;\r\n\r\n    mapping(address => patient) patientInfo;\r\n    mapping(address => doctor) doctorInfo;\r\n\r\n    mapping(address => address) Empty;\r\n    mapping(address => string) patientRecords;\r\n\r\n    function addAgent(\r\n        string memory _name,\r\n        uint256 _age,\r\n        uint256 _designation,\r\n        string memory _hash\r\n    ) public {\r\n        address addr = msg.sender;\r\n        if (_designation == 0) {\r\n            patient memory temp_patient;\r\n            temp_patient.name = _name;\r\n            temp_patient.age = _age;\r\n            temp_patient.record = _hash;\r\n            patientInfo[msg.sender] = temp_patient;\r\n            patientList.push(addr);\r\n        } else if (_designation == 1) {\r\n            doctor memory temp_doctor;\r\n            temp_doctor.name = _name;\r\n            temp_doctor.age = _age;\r\n            temp_doctor.record = _hash;\r\n            doctorInfo[msg.sender] = temp_doctor;\r\n            doctorList.push(addr);\r\n        }\r\n    }\r\n\r\n    function getPatient(address addr)\r\n        public\r\n        view\r\n        returns (\r\n            string memory,\r\n            uint256,\r\n            uint256[] memory,\r\n            address,\r\n            string memory\r\n        )\r\n    {\r\n        return (\r\n            patientInfo[addr].name,\r\n            patientInfo[addr].age,\r\n            patientInfo[addr].diagnosis,\r\n            Empty[addr],\r\n            patientInfo[addr].record\r\n        );\r\n    }\r\n\r\n    function getDoctor(address addr)\r\n        public\r\n        view\r\n        returns (string memory, uint256)\r\n    {\r\n        return (doctorInfo[addr].name, doctorInfo[addr].age);\r\n    }\r\n\r\n    function getPatientDoctorName(address paddr, address daddr)\r\n        public\r\n        view\r\n        returns (string memory, string memory)\r\n    {\r\n        return (patientInfo[paddr].name, doctorInfo[daddr].name);\r\n    }\r\n\r\n    function permitAccess(address payable addr)\r\n        public\r\n        payable\r\n        returns (address[] memory, address[] memory)\r\n    {\r\n        require(msg.value == 1 ether);\r\n        creditPool += 1;\r\n        doctorInfo[addr].patientAccessList.push(msg.sender);\r\n        patientInfo[msg.sender].doctorAccessList.push(addr);\r\n        return (\r\n            patientInfo[msg.sender].doctorAccessList,\r\n            doctorInfo[addr].patientAccessList\r\n        );\r\n    }\r\n\r\n    function revokeAccess(address payable daddr) public payable {\r\n        require(msg.value == 1 ether);\r\n        removePatient(msg.sender, daddr);\r\n        payable(msg.sender).transfer(1 ether);\r\n        creditPool -= 1;\r\n    }\r\n\r\n    function insuranceClaim(\r\n        address payable _paddr,\r\n        uint256 _diagnosis,\r\n        string memory _hash\r\n    ) public payable {\r\n        bool patientFound = false;\r\n        for (\r\n            uint256 i = 0;\r\n            i < doctorInfo[msg.sender].patientAccessList.length;\r\n            i++\r\n        ) {\r\n            if (doctorInfo[msg.sender].patientAccessList[i] == _paddr) {\r\n                payable(msg.sender).transfer(1 ether);\r\n                creditPool -= 1;\r\n                patientFound = true;\r\n            }\r\n        }\r\n        if (patientFound) {\r\n            setHash(_paddr, _hash);\r\n            removePatient(_paddr, msg.sender);\r\n            bool diagnosisFound = false;\r\n            for (uint256 i = 0; i < patientInfo[_paddr].diagnosis.length; i++) {\r\n                if (patientInfo[_paddr].diagnosis[i] == _diagnosis)\r\n                    diagnosisFound = true;\r\n            }\r\n        }\r\n    }\r\n\r\n    function getAccessedDoctorListForPatient(address _addr)\r\n        public\r\n        view\r\n        returns (address[] memory)\r\n    {\r\n        address[] storage doctoraddr = patientInfo[_addr].doctorAccessList;\r\n        return doctoraddr;\r\n    }\r\n\r\n    function getAccessedPatientListForDoctor(address _addr)\r\n        public\r\n        view\r\n        returns (address[] memory)\r\n    {\r\n        return doctorInfo[_addr].patientAccessList;\r\n    }\r\n\r\n    function getPatientList() public view returns (address[] memory) {\r\n        return patientList;\r\n    }\r\n\r\n    function getDoctorList() public view returns (address[] memory) {\r\n        return doctorList;\r\n    }\r\n\r\n    function setHash(address _paddr, string memory _hash) private {\r\n        patientInfo[_paddr].record = _hash;\r\n    }\r\n\r\n    function getHash(address _paddr) public view returns (string memory) {\r\n        return patientInfo[_paddr].record;\r\n    }\r\n\r\n    function removeElementInArray(address[] storage _Array, address _addr)\r\n        private\r\n    {\r\n        uint256 delIndex = _Array.length + 1;\r\n        for (uint256 i = 0; i < _Array.length; i++) {\r\n            if (_Array[i] == _addr) {\r\n                delIndex = i;\r\n                delete _Array[delIndex];\r\n                break;\r\n            }\r\n        }\r\n        if (delIndex != _Array.length + 1) {\r\n            for (uint256 i = delIndex; i < _Array.length - 1; i++) {\r\n                _Array[i] = _Array[i + 1];\r\n            }\r\n        }\r\n        _Array.pop();\r\n    }\r\n\r\n    function removePatient(address _paddr, address _daddr) public {\r\n        removeElementInArray(doctorInfo[_daddr].patientAccessList, _paddr);\r\n        removeElementInArray(patientInfo[_paddr].doctorAccessList, _daddr);\r\n    }\r\n}\r\n\r\n\r\n\r\n// x+y+z=216\r\n// x+y=162\r\n\r\n// 108=x-2y",
  "sourcePath": "D:\\4CSC\\Project\\Medichain\\contracts\\Agent.sol",
  "compiler": {
    "name": "solc",
    "version": "0.8.11+commit.d7f03943.Emscripten.clang"
  },
  "schemaVersion": "3.4.4",
  "updatedAt": "2022-04-02T08:43:36.207Z",
  "networkType": "ethereum",
  "devdoc": {
    "kind": "dev",
    "methods": {},
    "version": 1
  },
  "userdoc": {
    "kind": "user",
    "methods": {},
    "version": 1
  }
}